:020000040800F2
:100000000028002089160008191600081F1600088D
:10001000251600082B160008311600080000000005
:10002000000000000000000000000000371600087B
:1000300043160008000000004F1600085B16000879
:10004000D1160008D1160008D1160008D1160008F4
:10005000D1160008D1160008D1160008D1160008E4
:10006000D1160008D1160008D1160008D1160008D4
:10007000D1160008D1160008D1160008D1160008C4
:10008000D1160008D1160008D1160008D1160008B4
:10009000D1160008D1160008D1160008D1160008A4
:1000A000D1160008D1160008D1160008D116000894
:1000B00069160008D116000800000000D1160008DB
:1000C000D11600080000000000000000D116000852
:1000D00000000000D1160008D11600080000000042
:1000E000D1160008D1160008D11600080000000043
:1000F0000000000000000000000000000000000000
:0C01000000000000000000005FF808F1A3
:10010C0010B5054C237833B9044B13B10448AFF345
:10011C0000800123237010BD3C0000200000000073
:10012C00002D000808B5034B1BB103490348AFF37E
:10013C00008008BD0000000040000020002D0008D9
:10014C0080B483B000AF7860094A7B6852F82330E2
:10015C00012B06D1064A7B68002142F823100123AB
:10016C0000E0002318460C37BD4680BC704700BF2A
:10017C005800002080B483B000AF7860044A7B68DC
:10018C00012142F8231000BF0C37BD4680BC7047DC
:10019C005800002080B582B000AF00237B6087E060
:1001AC00484A7B6852F8232047497B6841F8232052
:1001BC00464A7B6852F8232042497B6841F8232049
:1001CC007B68002B0BD14FF40051414801F066FDC8
:1001DC00034619463D4A7B6842F823101CE07B68B5
:1001EC00012B0BD14FF48041394801F057FD0346E8
:1001FC001946364A7B6842F823100DE07B68022BC7
:10020C000AD14FF40041324801F048FD034619462B
:10021C002E4A7B6842F823102B4A7B6852F8232025
:10022C0028497B6851F823309A423ED1254A7B6895
:10023C0052F8232025497B6851F823309A4234D157
:10024C00244A7B6852F8232020497B6851F82330DC
:10025C009A422AD01D4A7B6852F823201D497B689C
:10026C0041F82320194A7B6852F82330002B08D11F
:10027C00194A7B68C82142F823107868FFF77AFF87
:10028C0013E0154A7B6852F823305A1E12497B68DA
:10029C0041F82320104A7B6852F82330002B04D1FC
:1002AC000C4A7B68012142F823107B6801337B6088
:1002BC007B68022B7FF774AF00BF00BF0837BD46C9
:1002CC0080BD00BF0C0000200000002018000020A2
:1002DC00000C0140240000206400002080B483B096
:1002EC0000AF786039603B68094A82FB03129210B8
:1002FC00DB17D21A07497B6841F82320064A7B6832
:10030C00002142F8231000BF0C37BD4680BC70475B
:10031C0067666666800000207000002080B483B0A1
:10032C0000AF00237B6017E0104A7B6852F8233043
:10033C00002B09DD0D4A7B6852F823305A1E0B49FD
:10034C007B6841F8232004E0094A7B68012142F8CC
:10035C0023107B6801337B607B68032BE4DD00BFDB
:10036C0000BF0C37BD4680BC704700BF800000202A
:10037C007000002080B500AF554B1B68042B00F2B9
:10038C009B8001A252F823F0A9030008E1030008A6
:10039C001304000853040008850400084D4B1B6827
:1003AC004FF47A7202FB03F319460020FFF796FF15
:1003BC00494B1B68013B494A1360464B1B68013B88
:1003CC00474A136000F036FF00F0A2FF404B0122B9
:1003DC001A607AE0434B1B68012B6FD1424B1B68B0
:1003EC004FF47A7202FB03F319460020FFF776FFF5
:1003FC003D4B1B68013B3A4A136000F073FF344BD2
:10040C0002221A605AE0374B1B68012B58D1314B32
:10041C001B684FF47A7202FB03F319460020FFF7B6
:10042C005DFF2C4B1B68013B2C4A13602A4B1B684D
:10043C00013B2B4A136000F03FFF00F027FF244BD9
:10044C0003221A603CE0274B1B68012B3AD1264B48
:10045C001B684FF47A7202FB03F319460020FFF776
:10046C003DFF214B1B68013B1C4A136000F0F8FE5A
:10047C00174B04221A6025E01A4B1B68012B23D161
:10048C00144B1B684FF47A7202FB03F319460020DD
:10049C00FFF724FF104B1B68013B104A13600D4BF8
:1004AC001B68013B0E4A136000F0C4FE00F030FFE5
:1004BC00074B01221A6007E000BF06E000BF04E012
:1004CC0000BF02E000BF00E000BF00BF80BD00BF66
:1004DC0090000020AC000020A8000020B0000020FC
:1004EC00A400002070000020A000002080B500AF08
:1004FC00AF4B1B68042B00F2BB8101A252F823F016
:10050C002105000841050008B505000897060008FC
:10051C0079070008A74B02221A604FF4FA710120E8
:10052C00FFF7DCFE00F0F8FDFFF724FFA04B0122E3
:10053C001A60A6E1FFF71EFF9F4B5B68012B1FD1D2
:10054C004FF4FA710120FFF7C9FE9A4B1B68022B7E
:10055C000FD100F0F5FD994B1B68013B974A1360D6
:10056C00974B1B68013B964A1360924B00221A6012
:10057C0001E000F0D1FD8F4B1B6801338D4A1360F5
:10058C000020FFF7DDFD0346012B40F0738142F2A2
:10059C0010710220FFF7A2FE8A4B1B688A4A136077
:1005AC00834B02221A6065E1834B9B68012B02D1BD
:1005BC007F4B01221A60804B5B68012B2BD100F022
:1005CC00D3FD7C4B1B68022B0FD17F4B1B6819464C
:1005DC00002000F011FD764B1B681946022000F03C
:1005EC0053FD744B00221A600BE0774B1B681946C5
:1005FC00012000F001FD6E4B1B681946032000F032
:10060C0043FD6C4B1B6801336A4A13604FF4FA715B
:10061C000120FFF763FE0020FFF792FD0346012B3C
:10062C000BD142F210710220FFF758FE674B1B688A
:10063C00654A13605E4B03221A600120FFF780FDB0
:10064C000346012B10D142F210710220FFF746FE37
:10065C005D4B1B68632B02DD5B4B01221A605A4B0E
:10066C001B680133584A13600220FFF769FD0346EB
:10067C00012B40F0018142F210710220FFF72EFE97
:10068C00514B1B684F4A1360F6E04B4B9B68012B98
:10069C0002D1474B01221A60474B5B68012B2BD1CF
:1006AC0000F084FD434B1B68022B0FD1464B1B689B
:1006BC001946002000F0A0FC3D4B1B681946022097
:1006CC0000F0E2FC3B4B00221A600BE03E4B1B6837
:1006DC001946012000F090FC354B1B68194603208D
:1006EC0000F0D2FC334B1B680133324A13604FF4D9
:1006FC00FA710120FFF7F2FD0020FFF721FD034600
:10070C00012B0BD142F210710220FFF7E7FD304BA9
:10071C001B682D4A1360264B04221A600120FFF738
:10072C000FFD0346012B10D142F210710220FFF78E
:10073C00D5FD254B1B68632B02DD234B01221A6070
:10074C00214B1B680133204A13600220FFF7F8FC91
:10075C000346012B40F0928042F210710220FFF709
:10076C00BDFD194B1B68194A136087E0124B9B683F
:10077C00012B02D10E4B01221A600F4B5B68012B2F
:10078C003ED100F035FD0B4B1B68022B22D10E4BDA
:10079C001B681946002000F02FFC054B1B681946FE
:1007AC00022000F071FC034B00221A601EE000BF17
:1007BC00940000209800002070000020B000002061
:1007CC00A4000020A80000209C000020A000002015
:1007DC00AC0000202C4B1B681946012000F00CFCCF
:1007EC002A4B1B681946032000F04EFC284B1B6853
:1007FC000133274A13604FF4FA710120FFF76EFDA5
:10080C000020FFF79DFC0346012B0AD142F2107128
:10081C000220FFF763FD1F4B00221A601B4B0122C5
:10082C001A600120FFF78CFC0346012B10D142F219
:10083C0010710220FFF752FD134B1B68632B02DD76
:10084C00114B01221A60104B1B6801330E4A1360C6
:10085C000220FFF775FC0346012B11D142F21071F7
:10086C000220FFF73BFD084B1B680B4A136007E0A7
:10087C0000BF06E000BF04E000BF02E000BF00E0E4
:10088C0000BF00BF80BD00BF9C0000209400002072
:10089C009800002090000020AC00002080B400AF35
:1008AC000B4B05221A600B4B02221A600A4B0322D7
:1008BC001A60074B1B68013B084A1360064B1B6808
:1008CC00013B074A136000BFBD4680BC704700BFA8
:1008DC00A8000020A0000020AC000020B0000020E8
:1008EC00A400002080B582B000AF78607B68092B33
:1008FC0000F2C88101A252F823F000BF31090008B0
:10090C0087090008DD090008330A0008890A000875
:10091C00DF0A0008350B00088B0B0008E10B000800
:10092C00370C000800224FF40071D54801F0CDF9C6
:10093C0000224FF48061D24801F0C7F900224FF435
:10094C000061CF4801F0C1F900224FF48051CC482E
:10095C0001F0BBF900224FF40051C94801F0B5F980
:10096C0000224FF48041C64801F0AFF901224FF448
:10097C000041C34801F0A9F985E101224FF400714F
:10098C00BF4801F0A2F900224FF48061BC4801F08D
:10099C009CF900224FF40061B94801F096F901224C
:1009AC004FF48051B64801F090F901224FF40051F8
:1009BC00B34801F08AF901224FF48041B04801F0AC
:1009CC0084F901224FF40041AD4801F07EF95AE15F
:1009DC0000224FF40071AA4801F077F900224FF47D
:1009EC008061A74801F071F901224FF40061A4481D
:1009FC0001F06BF900224FF48051A14801F065F928
:100A0C0000224FF400519E4801F05FF901224FF48F
:100A1C0080419B4801F059F900224FF4004198485D
:100A2C0001F053F92FE100224FF40071944801F0CA
:100A3C004CF900224FF48061914801F046F90022F4
:100A4C004FF400618E4801F040F900224FF48051C0
:100A5C008B4801F03AF901224FF40051884801F01B
:100A6C0034F901224FF48041854801F02EF900221F
:100A7C004FF40041824801F028F904E101224FF4BF
:100A8C0000717F4801F021F900224FF480617C480D
:100A9C0001F01BF900224FF40061794801F015F9BF
:100AAC0001224FF48051764801F00FF901224FF4E6
:100ABC000051734801F009F900224FF4804170484D
:100ACC0001F003F900224FF400416D4801F0FDF8EC
:100ADC00D9E000224FF40071694801F0F6F80122C8
:100AEC004FF48061664801F0F0F800224FF4006189
:100AFC00634801F0EAF800224FF48051604801F09D
:100B0C00E4F801224FF400515D4801F0DEF80022B8
:100B1C004FF480415A4801F0D8F800224FF40041BC
:100B2C00574801F0D2F8AEE000224FF4007154485F
:100B3C0001F0CBF801224FF48061514801F0C5F867
:100B4C0000224FF400614E4801F0BFF800224FF430
:100B5C0080514B4801F0B9F800224FF4005148483D
:100B6C0001F0B3F800224FF48041454801F0ADF894
:100B7C0000224FF40041424801F0A7F883E0002224
:100B8C004FF400713E4801F0A0F800224FF4806150
:100B9C003B4801F09AF800224FF40061384801F00C
:100BAC0094F801224FF48051354801F08EF801225F
:100BBC004FF40051324801F088F801224FF4804183
:100BCC002F4801F082F801224FF400412C4801F02B
:100BDC007CF858E000224FF40071294801F075F8B8
:100BEC0000224FF48061264801F06FF800224FF488
:100BFC000061234801F069F800224FF4805120482D
:100C0C0001F063F800224FF400511D4801F05DF82B
:100C1C0000224FF480411A4801F057F800224FF49B
:100C2C000041174801F051F82DE000224FF40071FB
:100C3C00134801F04AF800224FF48061104801F08B
:100C4C0044F800224FF400610D4801F03EF80022F8
:100C5C004FF480510A4801F038F801224FF400514A
:100C6C00074801F032F800224FF48041044801F0AB
:100C7C002CF800224FF40041014801F026F802E064
:100C8C000008014000BF00BF0837BD4680BD00BF53
:100C9C0080B582B000AF786000220121BF4801F01E
:100CAC0014F800220221BD4801F00FF800220421A3
:100CBC00BA4801F00AF800220821B84801F005F8FA
:100CCC0000221021B54801F000F800222021B34881
:100CDC0000F0FBFF00224021B04800F0F6FF7B68DB
:100CEC00092B00F2818101A252F823F0210D00089A
:100CFC00690D0008B10D0008F90D0008410E00083F
:100D0C00890E0008D10E0008190F0008610F0008A9
:100D1C00AD0F000800220121A04800F0D6FF0022F0
:100D2C0002219E4800F0D1FF002204219B4800F0D4
:100D3C00CCFF00220821994800F0C7FF00221021A7
:100D4C00964800F0C2FF00222021944800F0BDFF1D
:100D5C0001224021914800F0B8FF46E10122012117
:100D6C008E4800F0B2FF002202218C4800F0ADFF4B
:100D7C0000220421894800F0A8FF0122082187489D
:100D8C0000F0A3FF01221021844800F09EFF0122F5
:100D9C002021824800F099FF012240217F4800F079
:100DAC0094FF22E1002201217C4800F08EFF0022FA
:100DBC0002217A4800F089FF01220421774800F0D3
:100DCC0084FF00220821754800F07FFF00221021CB
:100DDC00724800F07AFF01222021704800F075FF64
:100DEC00002240216D4800F070FFFEE0002201213E
:100DFC006A4800F06AFF00220221684800F065FF93
:100E0C0000220421654800F060FF0022082163489D
:100E1C0000F05BFF01221021604800F056FF012218
:100E2C0020215E4800F051FF002240215B4800F079
:100E3C004CFFDAE001220121584800F046FF002265
:100E4C000221564800F041FF00220421534800F0D3
:100E5C003CFF01220821514800F037FF01221021EC
:100E6C004E4800F032FF002220214C4800F02DFFAC
:100E7C0000224021494800F028FFB6E00022012161
:100E8C00464800F022FF01220221444800F01DFFD9
:100E9C0000220421414800F018FF002208213F489D
:100EAC0000F013FF012210213C4800F00EFF00223D
:100EBC0020213A4800F009FF00224021374800F079
:100ECC0004FF92E000220121344800F0FEFE0122D2
:100EDC000221324800F0F9FE002204212F4800F0D4
:100EEC00F4FE002208212D4800F0EFFE0022102114
:100EFC002A4800F0EAFE00222021284800F0E5FEF6
:100F0C0000224021254800F0E0FE6EE00022012185
:100F1C00224800F0DAFE00220221204800F0D5FE23
:100F2C00002204211D4800F0D0FE012208211B489C
:100F3C0000F0CBFE01221021184800F0C6FE012261
:100F4C002021164800F0C1FE01224021134800F078
:100F5C00BCFE4AE000220121104800F0B6FE00223F
:100F6C0002210E4800F0B1FE002204210B4800F0D3
:100F7C00ACFE00220821094800F0A7FE0022102137
:100F8C00064800F0A2FE00222021044800F09DFE3D
:100F9C0000224021014800F098FE26E0000C0140A0
:100FAC0000220121134800F090FE0022022111487A
:100FBC0000F08BFE002204210E4800F086FE002279
:100FCC0008210C4800F081FE01221021094800F094
:100FDC007CFE00222021074800F077FE00224021F1
:100FEC00044800F072FE00E000BF00BF0837BD46A9
:100FFC0080BD00BF000C014080B582B000AF7860AE
:10100C0039607B68002B03D07B68012B17D032E052
:10101C0000224FF480711A4800F057FE01224FF461
:10102C000071174800F051FE3B68164A82FB031210
:10103C009210DB17D31A1846FFF754FC1BE0012261
:10104C004FF480710E4800F040FE00224FF4007106
:10105C000B4800F03AFE3A680A4B83FB02139910D6
:10106C00D317C91A0B469B000B445B00D11A0846D8
:10107C00FFF738FC00BF00BF0837BD4680BD00BF7E
:10108C00000C01406766666680B582B000AF786080
:10109C0039607B68022B03D07B68032B17D032E0BE
:1010AC0000224FF480611A4800F00FFE01224FF429
:1010BC000061174800F009FE3B68164A82FB0312D8
:1010CC009210DB17D31A1846FFF7E2FD1BE0012242
:1010DC004FF480610E4800F0F8FD00224FF40061DF
:1010EC000B4800F0F2FD3A680A4B83FB021399108F
:1010FC00D317C91A0B469B000B445B00D11A084648
:10110C00FFF7C6FD00BF00BF0837BD4680BD00BF5E
:10111C00000C01406766666680B500AF064B1B6825
:10112C0019460020FFF768FF044B1B681946022084
:10113C00FFF7AAFF00BF80BDB0000020A400002074
:10114C0080B500AF064B1B6819460120FFF754FF12
:10115C00044B1B6819460320FFF796FF00BF80BDA8
:10116C00B0000020A400002080B500AF01210E4883
:10117C0000F0C3FD08210C4800F0BFFD0022022145
:10118C00094800F0A2FD00220421074800F09DFD53
:10119C0000221021044800F098FD00222021024872
:1011AC0000F093FD00BF80BD0008014080B500AF8A
:1011BC0002210E4800F0A1FD10210C4800F09DFD0D
:1011CC0000220121094800F080FD0022042107487B
:1011DC0000F07BFD00220821044800F076FD00227F
:1011EC002021024800F071FD00BF80BD00080140C5
:1011FC0080B500AF04210E4800F07FFD20210C4883
:10120C0000F07BFD00220121094800F05EFD002268
:10121C000221074800F059FD00220821044800F083
:10122C0054FD00221021024800F04FFD00BF80BD8C
:10123C000008014080B500AF01220121074800F0F1
:10124C0044FD00220221054800F03FFD002204214C
:10125C00024800F03AFD00BF80BD00BF000801400D
:10126C0080B500AF00220121074800F02EFD0122BD
:10127C000221054800F029FD00220421024800F05B
:10128C0024FD00BF80BD00BF0008014080B500AF49
:10129C0000220121074800F018FD00220221054818
:1012AC0000F013FD01220421024800F00EFD00BFE6
:1012BC0080BD00BF0008014080B500AF01220821AD
:1012CC00074800F002FD00221021054800F0FDFC4B
:1012DC0000222021024800F0F8FC00BF80BD00BFB6
:1012EC000008014080B500AF00220821074800F03B
:1012FC00ECFC01221021054800F0E7FC0022202123
:10130C00024800F0E2FC00BF80BD00BF00080140B5
:10131C0080B500AF00220821074800F0D6FC00225F
:10132C001021054800F0D1FC01222021024800F0D8
:10133C00CCFC00BF80BD00BF0008014080B500AFF1
:10134C0000F0C2F900F00EF800F094F800F046F846
:10135C00034801F017F9FFF7A1FAFFF7C7F8FCE70C
:10136C00B400002080B590B000AF07F1180328221C
:10137C000021184601F0B6FC3B1D00221A605A6091
:10138C009A60DA601A610223BB610123BB621023ED
:10139C00FB6200237B6307F11803184600F0C6FCC0
:1013AC000346002B01D000F0D5F80F237B600023FF
:1013BC00BB600023FB6000233B6100237B613B1D72
:1013CC000021184600F032FF0346002B01D000F03C
:1013DC00C1F800BF4037BD4680BD000080B586B067
:1013EC0000AF07F1080300221A605A609A60DA60B5
:1013FC003B4600221A605A601D4B4FF080421A6027
:10140C001B4B41F63F725A60194B00229A60184BE5
:10141C000922DA60164B00221A61154B00229A61E0
:10142C00134801F05FF80346002B01D000F092F84E
:10143C004FF48053BB6007F1080319460C4801F0C8
:10144C00DDF90346002B01D000F084F800233B604B
:10145C0000237B603B461946054801F0B5FB03466B
:10146C00002B01D000F076F800BF1837BD4680BDC8
:10147C00B400002080B586B000AF07F1080300224D
:10148C001A605A609A60DA60294B9B69284A43F0CB
:10149C0004039361264B9B6903F004037B607B6818
:1014AC00234B9B69224A43F008039361204B9B69B1
:1014BC0003F008033B603B6800224FF63F611D4878
:1014CC0000F003FC002240F67F711B4800F0FDFB8E
:1014DC004FF63F63BB600123FB6000233B6102239B
:1014EC007B6107F108031946124800F05DFA40F6DB
:1014FC007F73BB600123FB6000233B6102237B6194
:10150C0007F1080319460C4800F04EFA4FF46043FB
:10151C00BB600023FB6001233B6107F10803194604
:10152C00054800F041FA00BF1837BD4680BD00BF2A
:10153C000010024000080140000C014080B582B050
:10154C0000AF7860FEF7EAFEFEF724FE00BF083716
:10155C00BD4680BD80B400AF72B600BFFEE7000090
:10156C0080B485B000AF154B9B69144A43F001035E
:10157C009361124B9B6903F00103BB60BB680F4B7B
:10158C00DB690E4A43F08053D3610C4BDB6903F0EB
:10159C0080537B607B680A4B5B68FB60FB6823F0C5
:1015AC00E063FB60FB6843F08063FB60044AFB680C
:1015BC00536000BF1437BD4680BC7047001002401A
:1015CC000000014080B584B000AF78607B681B6878
:1015DC00B3F1804F13D10C4BDB690B4A43F0010381
:1015EC00D361094BDB6903F00103FB60FB6800224C
:1015FC0000211C2000F0A1F91C2000F0BAF900BF5A
:10160C001037BD4680BD00BF0010024080B400AF53
:10161C00FEE780B400AFFEE780B400AFFEE780B415
:10162C0000AFFEE780B400AFFEE780B400AF00BFB0
:10163C00BD4680BC704780B400AF00BFBD4680BCC7
:10164C00704780B400AF00BFBD4680BC704780B50A
:10165C0000AF00F07FF800BF80BD000080B500AF88
:10166C00024800F0DBFF00BF80BD00BFB4000020CB
:10167C0080B400AF00BFBD4680BC7047FFF7F8FFD9
:10168C000B480C490C4A002302E0D458C4500433D4
:10169C00C4188C42F9D3094A094C002301E01360A9
:1016AC000432A242FBD301F0F9FAFFF747FE704770
:1016BC00000000203C000020442D00083C000020CD
:1016CC0000010020FEE7000080B500AF084B1B684E
:1016DC00074A43F010031360032000F023F90F2096
:1016EC0000F008F8FFF73CFF0023184680BD00BF50
:1016FC000020024080B582B000AF7860124B1A68AF
:10170C00124B1B7819464FF47A73B3FBF1F3B2FB0F
:10171C00F3F3184600F03BF90346002B01D00123EC
:10172C000EE07B680F2B0AD8002279684FF0FF304F
:10173C0000F003F9064A7B681360002300E00123E4
:10174C0018460837BD4680BD300000203800002008
:10175C003400002080B400AF054B1B781A46054BB3
:10176C001B681344034A136000BFBD4680BC70471E
:10177C0038000020FC00002080B400AF024B1B6836
:10178C001846BD4680BC7047FC00002080B485B074
:10179C0000AF78607B6803F00703FB600C4BDB68E1
:1017AC00BB60BA684FF6FF031340BB60FB681A02BC
:1017BC00BB68134343F0BF6343F40033BB60044A7C
:1017CC00BB68D36000BF1437BD4680BC704700BFF8
:1017DC0000ED00E080B400AF044BDB681B0A03F0A3
:1017EC0007031846BD4680BC704700BF00ED00E003
:1017FC0080B483B000AF0346FB7197F90730002B20
:10180C000BDBFB7903F01F02064997F907305B09E4
:10181C00012000FA02F241F8232000BF0C37BD462C
:10182C0080BC704700E100E080B483B000AF034699
:10183C003960FB7197F90730002B0ADB3B68DAB291
:10184C000C4997F907301201D2B20B4483F80023EC
:10185C000AE03B68DAB20849FB7903F00F03043B5A
:10186C001201D2B20B441A7600BF0C37BD4680BCB5
:10187C00704700BF00E100E000ED00E080B489B0EB
:10188C0000AFF860B9607A60FB6803F00703FB6196
:10189C00FB69C3F10703042B28BF0423BB61FB695D
:1018AC000433062B02D9FB69033B00E000237B6168
:1018BC004FF0FF32BB6902FA03F3DA43BB681A40FC
:1018CC007B699A404FF0FF317B6901FA03F3D943EE
:1018DC007B680B40134318462437BD4680BC7047C9
:1018EC0080B582B000AF78607B68013BB3F1807F3C
:1018FC0001D301230FE00A4A7B68013B53600F219F
:10190C004FF0FF30FFF790FF054B00229A60044B1D
:10191C0007221A60002318460837BD4680BD00BF59
:10192C0010E000E080B582B000AF78607868FFF717
:10193C002DFF00BF0837BD4680BD80B586B000AF17
:10194C000346B9607A60FB7300237B61FFF742FFAB
:10195C0078617A68B9687869FFF790FF024697F961
:10196C000F3011461846FFF75FFF00BF1837BD4612
:10197C0080BD80B582B000AF0346FB7197F907308C
:10198C001846FFF735FF00BF0837BD4680BD80B550
:10199C0082B000AF78607868FFF7A2FF0346184664
:1019AC000837BD4680BD000080B48BB000AF7860B6
:1019BC00396000237B6200233B6248E101227B6A91
:1019CC0002FA03F3FB613B681B68FA691340BB61C5
:1019DC00BA69FB699A4240F037813B685B68A34A5D
:1019EC0093425ED0A14A934275D8A14A934258D0F3
:1019FC009F4A93426FD89F4A934252D09D4A93423A
:101A0C0069D89D4A93424CD09B4A934263D89B4AD7
:101A1C00934246D0994A93425DD8122B2AD8122B66
:101A2C0059D801A252F823F0AF1A0008891A0008FD
:101A3C009B1A0008DD1A0008E31A0008E31A0008D4
:101A4C00E31A0008E31A0008E31A0008E31A000876
:101A5C00E31A0008E31A0008E31A0008E31A000866
:101A6C00E31A0008E31A0008E31A0008911A0008A8
:101A7C00A51A0008824A934213D02CE03B68DB681D
:101A8C003B6229E03B68DB6804333B6224E03B6843
:101A9C00DB6808333B621FE03B68DB680C333B625E
:101AAC001AE03B689B68002B02D104233B6213E0D5
:101ABC003B689B68012B05D108233B627B68FA6964
:101ACC001A6109E008233B627B68FA695A6103E0FA
:101ADC0000233B6200E000BFBB69FF2B01D87B6891
:101AEC0001E07B6804337B61BB69FF2B02D87B6A06
:101AFC009B0002E07B6A083B9B003B617B691A6898
:101B0C000F213B6901FA03F3DB431A40396A3B6945
:101B1C0001FA03F31A437B691A603B685B6803F0B4
:101B2C008053002B00F09080564B9B69554A43F034
:101B3C0001039361534B9B6903F00103BB60BB68CA
:101B4C00514A7B6A9B08023352F82330FB607B6A54
:101B5C0003F003039B000F2202FA03F3DB43FA6842
:101B6C001340FB607B68494A93420DD07B68484A1E
:101B7C00934207D07B68474A934201D1022304E089
:101B8C00032302E0012300E000237A6A02F003023F
:101B9C0092009340FA681343FB603B497B6A9B08B5
:101BAC000233FA6841F823203B685B6803F4801326
:101BBC00002B06D0384B9A683749BB6913438B60AE
:101BCC0006E0354B9A68BB69DB43334913408B60A5
:101BDC003B685B6803F40013002B06D02E4BDA68CD
:101BEC002D49BB691343CB6006E02B4BDA68BB690C
:101BFC00DB4329491340CB603B685B6803F400333B
:101C0C00002B06D0244B5A682349BB6913434B6005
:101C1C0006E0214B5A68BB69DB431F4913404B60FC
:101C2C003B685B6803F48033002B06D01A4B1A68B0
:101C3C001949BB6913430B6006E0174B1A68BB6963
:101C4C00DB43154913400B607B6A01337B623B68B5
:101C5C001A687B6A22FA03F3002B7FF4AFAE00BF45
:101C6C0000BF2C37BD4680BC704700BF000032104F
:101C7C000000311000002210000021100000121092
:101C8C00000011100010024000000140000801404B
:101C9C00000C0140001001400004014080B485B0EC
:101CAC0000AF78600B467B807B689A687B8813401A
:101CBC00002B02D00123FB7301E00023FB73FB7BA1
:101CCC0018461437BD4680BC704780B483B000AF53
:101CDC0078600B467B8013467B707B78002B03D09F
:101CEC007A887B681A6103E07B881A047B681A6126
:101CFC0000BF0C37BD4680BC704780B485B000AFC8
:101D0C0078600B467B807B68DB68FB607A88FB68BD
:101D1C0013401A04FB68D9437B880B401A437B6839
:101D2C001A6100BF1437BD4680BC704780B586B0C1
:101D3C0000AF78607B68002B01D101236CE27B68DB
:101D4C001B6803F00103002B00F08780924B5B684B
:101D5C0003F00C03042B0CD08F4B5B6803F00C03CB
:101D6C00082B12D18C4B5B6803F48033B3F5803FA6
:101D7C000BD1894B1B6803F40033002B6CD07B68B0
:101D8C005B68002B68D1012346E27B685B68B3F586
:101D9C00803F06D1804B1B687F4A43F4803313602D
:101DAC002EE07B685B68002B0CD17B4B1B687A4A5E
:101DBC0023F480331360784B1B68774A23F4802319
:101DCC0013601DE07B685B68B3F5A02F0CD1724BE0
:101DDC001B68714A43F4802313606F4B1B686E4A77
:101DEC0043F4803313600BE06B4B1B686A4A23F49B
:101DFC0080331360684B1B68674A23F4802313609D
:101E0C007B685B68002B13D0FFF7B6FC386108E0E9
:101E1C00FFF7B2FC02463B69D31A642B01D90323AA
:101E2C00FAE15D4B1B6803F40033002BF0D014E097
:101E3C00FFF7A2FC386108E0FFF79EFC02463B6905
:101E4C00D31A642B01D90323E6E1534B1B6803F42B
:101E5C000033002BF0D100E000BF7B681B6803F05F
:101E6C000203002B63D04C4B5B6803F00C03002B7C
:101E7C000BD0494B5B6803F00C03082B1CD1464B71
:101E8C005B6803F48033002B16D1434B1B6803F0C3
:101E9C000203002B05D07B681B69012B01D00123A9
:101EAC00BAE13D4B1B6823F0F8027B685B69DB00F1
:101EBC00394913430B603AE07B681B69002B20D037
:101ECC00364B01221A60FFF757FC386108E0FFF728
:101EDC0053FC02463B69D31A022B01D903239BE125
:101EEC002D4B1B6803F00203002BF0D02A4B1B6810
:101EFC0023F0F8027B685B69DB00274913430B6016
:101F0C0015E0264B00221A60FFF736FC386108E01A
:101F1C00FFF732FC02463B69D31A022B01D903238B
:101F2C007AE11D4B1B6803F00203002BF0D17B6898
:101F3C001B6803F00803002B3AD07B689B69002BCD
:101F4C0019D0174B01221A60FFF716FC386108E014
:101F5C00FFF712FC02463B69D31A022B01D903236B
:101F6C005AE10D4B5B6A03F00203002BF0D0012009
:101F7C0000F09AFA1CE00A4B00221A60FFF7FCFBF7
:101F8C0038610FE0FFF7F8FB02463B69D31A022BCE
:101F9C0008D9032340E100BF001002400000424278
:101FAC00800442429E4B5B6A03F00203002BE9D192
:101FBC007B681B6803F00403002B00F0A680002351
:101FCC00FB75974BDB6903F08053002B0DD1944BC1
:101FDC00DB69934A43F08053D361914BDB6903F087
:101FEC008053BB60BB680123FB758E4B1B6803F4ED
:101FFC008073002B18D18B4B1B688A4A43F4807377
:10200C001360FFF7B9FB386108E0FFF7B5FB024638
:10201C003B69D31A642B01D90323FDE0814B1B6868
:10202C0003F48073002BF0D07B68DB68012B06D1A6
:10203C007B4B1B6A7A4A43F0010313622DE07B68E9
:10204C00DB68002B0CD1764B1B6A754A23F001031D
:10205C001362734B1B6A724A23F0040313621CE075
:10206C007B68DB68052B0CD16D4B1B6A6C4A43F00B
:10207C00040313626A4B1B6A694A43F0010313623F
:10208C000BE0674B1B6A664A23F001031362644B37
:10209C001B6A634A23F0040313627B68DB68002B22
:1020AC0015D0FFF769FB38610AE0FFF765FB0246C4
:1020BC003B69D31A41F28832934201D90323ABE036
:1020CC00574B1B6A03F00203002BEED014E0FFF712
:1020DC0053FB38610AE0FFF74FFB02463B69D31A0A
:1020EC0041F28832934201D9032395E04C4B1B6A91
:1020FC0003F00203002BEED1FB7D012B05D1484BE5
:10210C00DB69474A23F08053D3617B68DB69002B82
:10211C0000F08180424B5B6803F00C03082B61D00C
:10212C007B68DB69022B46D13F4B00221A60FFF71C
:10213C0023FB386108E0FFF71FFB02463B69D31A0B
:10214C00022B01D9032367E0354B1B6803F00073A6
:10215C00002BF0D17B681B6AB3F5803F08D1304B64
:10216C005B6823F400327B689B682D4913434B60FA
:10217C002B4B5B6823F474127B68196A7B685B6A6F
:10218C000B43274913434B60274B01221A60FFF77F
:10219C00F3FA386108E0FFF7EFFA02463B69D31A0D
:1021AC00022B01D9032337E01D4B1B6803F000738E
:1021BC00002BF0D02FE01C4B00221A60FFF7DCFA4A
:1021CC00386108E0FFF7D8FA02463B69D31A022BB4
:1021DC0001D9032320E0124B1B6803F00073002B82
:1021EC00F0D118E07B68DB69012B01D1012313E0EE
:1021FC000B4B5B68FB60FB6803F480327B681B6AEB
:10220C009A4206D1FB6803F470127B685B6A9A42AF
:10221C0001D0012300E0002318461837BD4680BDCD
:10222C0000100240007000406000424280B584B053
:10223C0000AF786039607B68002B01D10123D0E0BE
:10224C006A4B1B6803F007033A689A4210D9674B34
:10225C001B6823F0070265493B6813430B60634B13
:10226C001B6803F007033A689A4201D00123B8E0D7
:10227C007B681B6803F00203002B20D07B681B6873
:10228C0003F00403002B05D0594B5B68584A43F408
:10229C00E06353607B681B6803F00803002B05D0D8
:1022AC00534B5B68524A43F460535360504B5B682A
:1022BC0023F0F0027B689B684D4913434B607B68AD
:1022CC001B6803F00103002B40D07B685B68012B7B
:1022DC0007D1474B1B6803F40033002B15D10123A6
:1022EC007FE07B685B68022B07D1414B1B6803F0D6
:1022FC000073002B09D1012373E03D4B1B6803F0E5
:10230C000203002B01D101236BE0394B5B6823F0F6
:10231C0003027B685B68364913434B60FFF72CFA6A
:10232C00F8600AE0FFF728FA0246FB68D31A41F27C
:10233C008832934201D9032353E02D4B5B6803F0A1
:10234C000C027B685B689B009A42EBD1274B1B68A5
:10235C0003F007033A689A4210D2244B1B6823F00F
:10236C00070222493B6813430B60204B1B6803F0A8
:10237C0007033A689A4201D0012332E07B681B685C
:10238C0003F00403002B08D0194B5B6823F4E062C4
:10239C007B68DB68164913434B607B681B6803F052
:1023AC000803002B09D0124B5B6823F460527B6846
:1023BC001B69DB000E4913434B6000F021F8024609
:1023CC000B4B5B681B0903F00F030A49CB5C22FA29
:1023DC0003F3094A1360094B1B681846FFF78AF987
:1023EC00002318461037BD4680BD00BF00200240B8
:1023FC0000100240182D000830000020340000208E
:10240C0080B487B000AF0023FB600023BB600023C7
:10241C007B6100237B6000233B611E4B5B68FB6090
:10242C00FB6803F00C03042B02D0082B03D027E02D
:10243C00194B3B6127E0FB689B0C03F00F03174A19
:10244C00D35C7B60FB6803F48033002B10D0114B02
:10245C005B685B0C03F00103114AD35CBB607B68C7
:10246C000D4A02FB03F2BB68B2FBF3F37B6104E0A1
:10247C007B680C4A02FB03F37B617B693B6102E0E6
:10248C00054B3B6100BF3B6918461C37BD4680BC01
:10249C00704700BF0010024000127A00282D00087F
:1024AC00382D000800093D0080B485B000AF78607D
:1024BC000A4B1B680A4AA2FB03235B0A7A6802FBDD
:1024CC0003F3FB6000BFFB685A1EFA60002BF9D1C6
:1024DC0000BF00BF1437BD4680BC704730000020E1
:1024EC00D34D621080B582B000AF78607B68002B52
:1024FC0001D1012341E07B6893F83D30DBB2002B26
:10250C0006D17B68002283F83C207868FFF75AF8E4
:10251C007B68022283F83D207B681A687B68043351
:10252C001946104600F056FA7B68012283F84620C3
:10253C007B68012283F83E207B68012283F83F20D0
:10254C007B68012283F840207B68012283F84120BC
:10255C007B68012283F842207B68012283F84320A8
:10256C007B68012283F844207B68012283F8452094
:10257C007B68012283F83D20002318460837BD46AE
:10258C0080BD000080B485B000AF78607B6893F8A4
:10259C003D30DBB2012B01D0012335E07B680222F8
:1025AC0083F83D207B681B68DA687B681B6842F007
:1025BC000102DA607B681B68164A934209D07B687B
:1025CC001B68B3F1804F04D07B681B68124A93429E
:1025DC0011D17B681B689B6803F00703FB60FB68E9
:1025EC00062B10D07B681B681A687B681B6842F04E
:1025FC0001021A6007E07B681B681A687B681B681D
:10260C0042F001021A60002318461437BD4680BC04
:10261C00704700BF002C01400004004080B584B01E
:10262C0000AF78607B681B68DB68FB607B681B68AD
:10263C001B69BB60BB6803F00203002B20D0FB6856
:10264C0003F00203002B1BD07B681B686FF00202A7
:10265C001A617B6801221A777B681B689B6903F0FF
:10266C000303002B03D0786800F098F905E0786834
:10267C0000F08BF9786800F09AF97B6800221A77E1
:10268C00BB6803F00403002B20D0FB6803F00403A9
:10269C00002B1BD07B681B686FF004021A617B68EF
:1026AC0002221A777B681B689B6903F44073002B2A
:1026BC0003D0786800F072F905E0786800F065F9ED
:1026CC00786800F074F97B6800221A77BB6803F015
:1026DC000803002B20D0FB6803F00803002B1BD051
:1026EC007B681B686FF008021A617B6804221A77FA
:1026FC007B681B68DB6903F00303002B03D078684D
:10270C0000F04CF905E0786800F03FF9786800F0CB
:10271C004EF97B6800221A77BB6803F01003002B7C
:10272C0020D0FB6803F01003002B1BD07B681B68C8
:10273C006FF010021A617B6808221A777B681B689D
:10274C00DB6903F44073002B03D0786800F026F9A2
:10275C0005E0786800F019F9786800F028F97B68D2
:10276C0000221A77BB6803F00103002B0CD0FB6826
:10277C0003F00103002B07D07B681B686FF001028C
:10278C001A617868FEF7DAFEBB6803F08003002B51
:10279C000CD0FB6803F08003002B07D07B681B6810
:1027AC006FF080021A61786800F06FFABB6803F072
:1027BC004003002B0CD0FB6803F04003002B07D028
:1027CC007B681B686FF040021A61786800F0F8F8BB
:1027DC00BB6803F02003002B0CD0FB6803F0200334
:1027EC00002B07D07B681B686FF020021A61786899
:1027FC0000F042FA00BF1037BD4680BD80B584B0F2
:10280C0000AF786039600023FB737B6893F83C3031
:10281C00012B01D10223B4E07B68012283F83C2018
:10282C007B68022283F83D207B681B689B68BB6039
:10283C00BB6823F07703BB60BB6823F47F43BB60AA
:10284C007B681B68BA689A603B681B68B3F5005FCD
:10285C003ED0B3F5005F00F28780B3F5805F00F0E7
:10286C008680B3F5805F7FD8702B1AD0702B7BD805
:10287C00602B50D0602B77D8502B3CD0502B73D87A
:10288C00402B58D0402B6FD8302B64D0302B6BD8CA
:10289C00202B60D0202B67D8002B5CD0102B5AD06B
:1028AC0062E07B6818683B6899683B685A683B68CB
:1028BC00DB6800F06AF97B681B689B68BB60BB68CF
:1028CC0043F07703BB607B681B68BA689A604FE083
:1028DC007B6818683B6899683B685A683B68DB689A
:1028EC0000F053F97B681B689A687B681B6842F49C
:1028FC0080429A603CE07B6818683B6859683B688A
:10290C00DB681A4600F0CAF87B681B685021184631
:10291C0000F021F92CE07B6818683B6859683B682B
:10292C00DB681A4600F0E8F87B681B6860211846E3
:10293C0000F011F91CE07B6818683B6859683B682B
:10294C00DB681A4600F0AAF87B681B684021184621
:10295C0000F001F90CE07B681A683B681B681946AB
:10296C00104600F0F8F803E00123FB7300E000BF11
:10297C007B68012283F83D207B68002283F83C2091
:10298C00FB7B18461037BD4680BD80B483B000AFCA
:10299C00786000BF0C37BD4680BC704780B483B0F4
:1029AC0000AF786000BF0C37BD4680BC704780B468
:1029BC0083B000AF786000BF0C37BD4680BC704759
:1029CC0080B483B000AF786000BF0C37BD4680BCCC
:1029DC007047000080B485B000AF786039607B68C8
:1029EC001B68FB607B682B4A934207D07B68B3F172
:1029FC00804F03D07B68284A934208D1FB6823F0B0
:102A0C007003FB603B685B68FA681343FB607B6890
:102A1C00204A934207D07B68B3F1804F03D07B6888
:102A2C001D4A934208D1FB6823F44073FB603B685A
:102A3C00DB68FA681343FB60FB6823F080023B6899
:102A4C005B691343FB607B68FA681A603B689A68A1
:102A5C007B68DA623B681A687B689A627B680D4A0D
:102A6C00934203D13B681A697B681A637B68012225
:102A7C005A617B681B6903F00103002B05D07B684E
:102A8C001B6923F001027B681A6100BF1437BD4635
:102A9C0080BC7047002C01400004004080B487B01B
:102AAC0000AFF860B9607A60FB681B6A7B61FB68F9
:102ABC001B6A23F00102FB681A62FB689B693B618D
:102ACC003B6923F0F0033B617B681B013A691343BC
:102ADC003B617B6923F00A037B617A69BB68134312
:102AEC007B61FB683A699A61FB687A691A6200BF7C
:102AFC001C37BD4680BC704780B487B000AFF8600F
:102B0C00B9607A60FB681B6A7B61FB681B6A23F007
:102B1C001002FB681A62FB689B693B613B6923F4FA
:102B2C0070433B617B681B033A6913433B617B69D0
:102B3C0023F0A0037B61BB681B017A6913437B61A3
:102B4C00FB683A699A61FB687A691A6200BF1C37A4
:102B5C00BD4680BC704780B485B000AF78603960EA
:102B6C007B689B68FB60FB6823F07003FB603A6832
:102B7C00FB68134343F00703FB607B68FA689A60B9
:102B8C0000BF1437BD4680BC704780B487B000AF1F
:102B9C00F860B9607A603B60FB689B687B617B691D
:102BAC0023F47F437B613B681A027B681A43BB6842
:102BBC0013437A6913437B61FB687A699A6000BF9F
:102BCC001C37BD4680BC704780B485B000AF7860C0
:102BDC0039607B6893F83C30012B01D1022341E032
:102BEC007B68012283F83C207B68022283F83D201D
:102BFC007B681B685B68FB607B681B689B68BB60C1
:102C0C00FB6823F07003FB603B681B68FA68134396
:102C1C00FB607B681B68FA685A607B681B68144A07
:102C2C00934209D07B681B68B3F1804F04D07B685A
:102C3C001B68104A93420CD1BB6823F08003BB6025
:102C4C003B685B68BA681343BB607B681B68BA68F7
:102C5C009A607B68012283F83D207B68002283F810
:102C6C003C20002318461437BD4680BC704700BF7B
:102C7C00002C01400004004080B483B000AF7860A9
:102C8C0000BF0C37BD4680BC704780B483B000AF2A
:102C9C00786000BF0C37BD4680BC704770B500260D
:102CAC000C4D0D4C641BA410A64209D100F022F867
:102CBC0000260A4D0A4C641BA410A64205D170BD17
:102CCC0055F8043B98470136EEE755F8043B984716
:102CDC000136F2E73C2D00083C2D00083C2D000885
:102CEC00402D000803460244934200D1704703F87C
:102CFC00011BF9E7F8B500BFF8BC08BC9E4670474D
:0C2D0C00F8B500BFF8BC08BC9E4670473C
:102D18000000000000000000010203040607080983
:102D280002030405060708090A0B0C0D0E0F101004
:042D38000102000094
:042D3C003101000859
:042D40000D01000879
:102D4400010000000000000000000000010000007D
:102D5400000000000000000001000000000000006E
:102D6400000000000100000000000000000000005E
:0C2D740000127A001000000001000000B6
:040000050800168950
:00000001FF
